:100000000C945D000C9485000C9485000C94850084
:100010000C9485000C9485000C9485000C9485004C
:100020000C9485000C9485000C9485000C9485003C
:100030000C9485000C9485000C9485000C9485002C
:100040000C94F8040C9485000C9485000C948500A5
:100050000C9485000C9485000C9485000C9485000C
:100060000C9442050C948500000000080002010079
:100070000003040700000000000000000000000072
:10008000250028002B0000000000240027002A0083
:10009000040404040404040402020202020203032E
:1000A0000303030301020408102040800102040836
:1000B0001020010204081020610611241FBECFEF9A
:1000C000D8E0DEBFCDBF11E0A0E0B1E0EAE4FFE0A0
:1000D00002C005900D92A034B107D9F722E0A0E448
:1000E000B1E001C01D92AB31B207E1F710E0CDE500
:1000F000D0E004C02197FE010E949D07CC35D107B6
:10010000C9F70E9481060C94A3070C94000008957F
:10011000089590E0FC01EC55FF4F249180579F4FCC
:10012000FC018491882399F090E0880F991FFC01CD
:10013000EA57FF4FA591B491FC01E458FF4F859118
:1001400094918FB7F894EC91E22BEC938FBF0895C4
:1001500090E0FC01E859FF4F2491FC01EC55FF4F62
:100160003491FC01E057FF4FE491EE23C9F02223C4
:1001700039F0233001F1A8F4213019F1223029F1AE
:10018000F0E0EE0FFF1FE458FF4FA591B4918FB739
:10019000F894EC91611126C030953E233C938FBFBB
:1001A00008952730A9F02830C9F0243049F780910C
:1001B00080008F7D03C0809180008F7780938000C6
:1001C000DFCF84B58F7784BDDBCF84B58F7DFBCF48
:1001D0008091B0008F778093B000D2CF8091B00033
:1001E0008F7DF9CF3E2BDACF3FB7F8948091F7019E
:1001F0009091F801A091F901B091FA0126B5A89B60
:1002000005C02F3F19F00196A11DB11D3FBFBA2FA8
:10021000A92F982F8827BC01CD01620F711D811D68
:10022000911D42E0660F771F881F991F4A95D1F7ED
:1002300008958F929F92AF92BF92CF92DF92EF92EA
:10024000FF924B015C010E94F4006B017C010E9453
:10025000F4006C197D098E099F09683E7340810581
:100260009105A8F321E0821A9108A108B10888EE4F
:10027000C80E83E0D81EE11CF11C81149104A10476
:10028000B10429F7FF90EF90DF90CF90BF90AF902F
:100290009F908F900895AF92BF92CF92DF92EF928E
:1002A000FF920F931F93CF93DF936C017B018B0120
:1002B000040F151FEB015E01AE18BF08C017D10770
:1002C00059F06991D601ED91FC910190F081E02DFA
:1002D000C6010995892B79F7C501DF91CF911F914F
:1002E0000F91FF90EF90DF90CF90BF90AF90089567
:1002F000089520918101260F3327331F21323105C4
:10030000ECF42091CA01FC0190E080E0243069F017
:1003100082E00895A09181012191AC014F595E4F77
:10032000A40FB52FB11D2C930196861798F38091D9
:100330008101680F6093810180E0089581E0089554
:100340001092CA0181E08093C9011092A40161E07A
:1003500082E10E94A80061E083E10E94A800E9EB2D
:10036000F0E080818E7F808380818D7F808388E430
:100370008093B80085E48093BC000895CF93DF9309
:1003800091E0909360018823B9F0C091B800D091BA
:10039000BA008091BC008A7B8093BC0060E082E15F
:1003A0000E94A80060E083E10E94A8000E94A001D2
:1003B000D093BA00C093B800DF91CF91089508950B
:1003C000E091020280910102E81730F4F0E0E05C75
:1003D000FE4F808190E008958FEF9FEF08959091F8
:1003E0000202809101022FEF3FEF981748F4E92FA6
:1003F000F0E0E05CFE4F208130E09F5F90930202CE
:10040000C90108958091010290910202891B990B04
:100410000895CF92DF92EF92FF920F931F93CF93A5
:10042000DF937C01CB018A012091D001222389F046
:10043000EB016B01C40ED51ECC15DD0569F0699189
:10044000D701ED91FC910190F081E02DC701099554
:10045000F3CF642F0E947901C801DF91CF911F91E2
:100460000F91FF90EF90DF90CF900895CF93DF939F
:100470001F92CDB7DEB769832091D0012223F9F016
:100480002091FF01203258F021E030E0FC0133835D
:10049000228390E080E00F90DF91CF9108958091CA
:1004A0000002E82FF0E0EF52FE4F998190838F5FBA
:1004B000809300028093FF0181E090E0ECCF61E047
:1004C000CE0101960E947901F7CFCF92DF92EF9291
:1004D000FF920F931F93CF93DF93FC01C48121E020
:1004E0002093D001C093F101109200021092FF01FD
:1004F0008385682B83E092E00E943602D091FF0151
:10050000D13208F092C00E94F4006B017C0180910E
:10051000CA01811165C082E08093CA0181E08093A5
:10052000C9018FEF8093C8011092C701D093C60113
:10053000A1EDB1E0E6EAF1E080E0D81385C01092C9
:10054000A5018091A501CC0FC82BC093A501809176
:10055000A401813009F07CC01092A4010E94F40033
:100560006B017C018091A5018093BB008091CC013F
:100570009091CD01A091CE01B091CF01892B8A2B12
:100580008B2B99F00E94F4000091CC011091CD01C9
:100590002091CE013091CF016C197D098E099F0900
:1005A0000617170728073907E0F18091BC0083FD83
:1005B000D9CF85EC8093BC000E94F4006B017C01D4
:1005C0008091CA01823009F445C08091C8018F3FF3
:1005D00061F18091C801803241F18091C80125C04C
:1005E0008091CC019091CD01A091CE01B091CF012D
:1005F000892B8A2B8B2B09F48ACF0E94F40000915F
:10060000CC011091CD012091CE013091CF016C1918
:100610007D098E099F09061717072807390708F073
:1006200076CF8091CB010E94BE0110920002109201
:10063000FF011092D001DF91CF911F910F91FF9098
:10064000EF90DF90CF9008959D9191938F5F75CF3C
:1006500085EEB0CF8091CC019091CD01A091CE01DB
:10066000B091CF01892B8A2B8B2B09F4A9CF0E9443
:10067000F4000091CC011091CD012091CE01309178
:10068000CF016C197D098E099F09061717072807E6
:10069000390708F095CFC5CF90E080E00895FC01C0
:1006A00001900020E9F73197AF01481B590BBC01BD
:1006B0008FE092E00C944B010F931F93CF938C012A
:1006C000C62F0E9465026C2F6460C8010E946502FB
:1006D0006C2F6B7FC8010E94650283EC90E001974C
:1006E000F1F7CF911F910F9108950F931F93CF931F
:1006F000DF938C01D62FC42F607F642B0E945C0394
:1007000080E1D89FB00111246C2BC801DF91CF91FB
:100710001F910F910C945C03CF93DF93CDB7DEB79D
:1007200028970FB6F894DEBF0FBECDBF98E0E0E08B
:10073000F1E0DE01119601900D929A95E1F790910A
:100740001702961710F46FEF690F262F30E0220F73
:10075000331F41E050E04C0F5D1F240F351FF9019E
:100760006081680F606840E08FE092E028960FB6E5
:10077000F894DEBF0FBECDBFDF91CF910C9475030F
:1007800040E061E08FE092E00E9475038BE39FE11F
:100790000197F1F70895CF93DF9310920202109220
:1007A0000102109200021092FF010E94A00187E84E
:1007B00090E09093FE018093FD0188E890E0909393
:1007C000FC018093FB011092140280911902823087
:1007D00018F098E0909314028093170262E370E09F
:1007E00080E090E00E94190160911A028FE092E08F
:1007F0000E94650268EE73E080E090E00E941901BB
:1008000060E38FE092E00E945C03CBE4D6E4CE018B
:100810000197F1F760E38FE092E00E945C0321977B
:10082000F1F760E38FE092E00E945C0383E592E0E1
:100830000197F1F760E28FE092E00E945C03609123
:100840001402606240E08FE092E00E94750384E051
:100850008093150240E06CE08FE092E00E94750307
:100860000E94C00382E08093160240E066E08FE0C1
:1008700092E00E94750340E062E08FE092E00E9407
:1008800075038BE39FE10197F1F7DF91CF91089515
:1008900041E00E94750381E090E00895CF92DF92DD
:1008A000EF92FF920F931F93CF93DF93CDB7DEB7F5
:1008B000A1970FB6F894DEBF0FBECDBF6B017C01D0
:1008C000F7FE3CC041E06DE28FE092E00E947503CC
:1008D00022273327A9012C193D094E095F0919A2C6
:1008E0008E010F5D1F4F9AE0C92ED12CE12CF12C07
:1008F000CA01B901A70196010E947B07605DF8015A
:1009000062938F01211531054105510589F790E06A
:1009100080E0309719F0CF010E944F030196A19615
:100920000FB6F894DEBF0FBECDBFDF91CF911F9100
:100930000F91FF90EF90DF90CF900895AC019B0155
:1009400019A28E010F5D1F4F8AE0C82ED12CE12C19
:10095000F12CCA01B901A70196010E947B07605DD5
:10096000F80162938F01211531054105510589F781
:1009700090E080E0309799F2CF010E944F03CFCFF3
:1009800085ED8093BC008091CC019091CD01A09128
:10099000CE01B091CF010796A11DB11D23E0B69500
:1009A000A795979587952A95D1F72091BC0024FDAE
:1009B00003C01092CA0108954091CC015091CD011D
:1009C0006091CE017091CF01452B462B472B69F3E7
:1009D0000097A105B10541F02AE22A95F1F700C080
:1009E0000197A109B109E1CF8091CB010C94BE011F
:1009F0001F920F920FB60F9211242F933F938F9354
:100A00009F93AF93BF938091F3019091F401A091D4
:100A1000F501B091F6013091F20123E0230F2D375B
:100A200058F50196A11DB11D2093F2018093F301A9
:100A30009093F401A093F501B093F6018091F70132
:100A40009091F801A091F901B091FA010196A11DD0
:100A5000B11D8093F7019093F801A093F901B09331
:100A6000FA01BF91AF919F918F913F912F910F907C
:100A70000FBE0F901F90189526E8230F0296A11D18
:100A8000B11DD2CF1F920F920FB60F9211242F9348
:100A90003F934F935F936F937F938F939F93AF9306
:100AA000BF93EF93FF938091B900887F803609F45C
:100AB0004AC0F0F5883209F4A7C018F5803109F46E
:100AC0009BC0B8F4882309F4F9C0883009F494C0B5
:100AD000FF91EF91BF91AF919F918F917F916F9116
:100AE0005F914F913F912F910F900FBE0F901F90EC
:100AF0001895883109F488C0803251F78093C80175
:100B000014C0803409F49DC040F48033B9F38833B5
:100B1000F9F68093C80185ECB0C0803509F485C032
:100B2000883509F496C0883499F60E94C004D0CF65
:100B3000883909F48CC038F5883729F050F48836A4
:100B400011F0803729F683E08093CA011092A30147
:100B500057C0883809F47BC0803919F0803809F013
:100B6000B7CF8091A301803208F071C0E091A3015A
:100B700081E08E0F8093A3018091BB00F0E0ED57E0
:100B8000FE4F80833DC0803B39F0E0F4803A09F4A9
:100B900079C0883A09F09CCF84E08093CA01109212
:100BA000820110928101E091FD01F091FE01099511
:100BB0008091810181110FC081E0809381011092A9
:100BC000610109C0803C09F4A6CF883C09F4A3CF99
:100BD000883B09F07DCFE091820181E08E0F809308
:100BE0008201F0E0EF59FE4F80818093BB0090912D
:100BF00082018091810129C08091A5018093BB0071
:100C000085EC8093BC0064CF9091C7018091C601B0
:100C1000981758F5E091C70181E08E0F8093C701C6
:100C2000F0E0EA55FE4F8081E9CFE091C70181E015
:100C30008E0F8093C7018091BB00F0E0EA55FE4F14
:100C400080839091C7018091C6019817C8F285E80A
:100C5000D8CFE091C70181E08E0F8093C7018091CA
:100C6000BB00F0E0EA55FE4F80838091C9018111FD
:100C70005CCF81E08093A40184EA8093BC00109251
:100C8000CA0126CF85EC8093BC001092CA018091E6
:100C9000A301803230F4E091A301F0E0ED57FE4F64
:100CA00010826091A30170E0E091FB01F091FC01E2
:100CB00083E891E009951092A3010ACF1092C80130
:100CC00034CFE3E0F2E01382128288EE93E0A0E0FA
:100CD000B0E084839583A683B7838CE091E0918311
:100CE0008083EFE0F2E0138212828EE191E0918343
:100CF00080838FE3848380E1818782E0828713860B
:100D00000895789484B5826084BD84B5816084BD83
:100D100085B5826085BD85B5816085BD80916E0099
:100D2000816080936E0010928100809181008260CA
:100D30008093810080918100816080938100809107
:100D400080008160809380008091B10084608093F6
:100D5000B1008091B00081608093B00080917A00F2
:100D6000846080937A0080917A00826080937A0018
:100D700080917A00816080937A0080917A00806807
:100D800080937A001092C10084E00E94890083E081
:100D90000E94890082E00E9489000E94CB030E9489
:100DA000CB0388E080931A0260E08FE092E00E941B
:100DB00065020E94C00363E080E00E948C0386E22B
:100DC00091E00E944F03C0E0D0E060E082E00E942A
:100DD000A80061E084E00E94A80060E375E780E07D
:100DE00090E00E94190160E084E00E94A80061E0A8
:100DF00083E00E94A80068EB7BE080E090E00E9426
:100E0000190160E083E00E94A80061E082E00E9496
:100E1000A8002EE1C22ED12CE12CF12C0E94C0039F
:100E200060E083E00E948C0387E391E00E944F031F
:100E3000C701B6010E944E0468EE73E080E090E0C6
:100E40000E94190181E0C81AD108E108F1088FEF6A
:100E5000C816D806E806F80609F793E0C92ED12C83
:100E6000E12CF12C0E94C00360E083E00E948C031F
:100E700087E391E00E944F03C701B6010E944E0430
:100E800068EE73E080E090E00E94190181E0C81AEA
:100E9000D108E108F1088FEFC816D806E806F80671
:100EA00009F78EE1C82ED12CE12CF12C0E94C00351
:100EB00060E083E00E948C0387E391E00E944F038F
:100EC000C701B6010E944E0468EE73E080E090E036
:100ED0000E94190181E0C81AD108E108F1088FEFDA
:100EE000C816D806E806F80609F7209709F46DCF6A
:100EF0000E9400006ACFA1E21A2EAA1BBB1BFD01B3
:100F00000DC0AA1FBB1FEE1FFF1FA217B307E407E8
:100F1000F50720F0A21BB30BE40BF50B661F771F40
:100F2000881F991F1A9469F7609570958095909520
:100F30009B01AC01BD01CF010895EE0FFF1F05908D
:0A0F4000F491E02D0994F894FFCF1E
:100F4A0000004000140054000000000036020902AC
:100F5A004C03DF010202EF01E00100000000480437
:100F6A004B014C0378017374617274696E672E2E9B
:100F7A002E2E2E2E2E2E0054524146464943200034
:00000001FF
