:020000040000FA
:100000000C9461000C9473000C9473000C947300B6
:100010000C9473000C9473000C9473000C94730094
:100020000C9473000C9473000C9473000C94730084
:100030000C9473000C9473000C9473000C94730074
:100040000C94A4010C9473000C9473000C94730032
:100050000C9473000C9473000C9473000C94730054
:100060000C9473000C947300000000002300260021
:10007000290000000008000201000003040700003E
:1000800000000000000000000000250028002B00F8
:1000900000000000240027002A00040404040404D3
:1000A0000404020202020202030303030303010227
:1000B00004081020408001020408102001020408F6
:1000C000102011241FBECFEFD8E0DEBFCDBF21E04E
:1000D000A0E0B1E001C01D92A930B207E1F70E9493
:1000E000EE010C9497020C94000090E0FC01E255A4
:1000F000FF4F249186569F4FFC018491882399F0ED
:1001000090E0880F991FFC01E057FF4FA591B49133
:10011000FC01EA57FF4F859194918FB7F894EC91C9
:10012000E22BEC938FBF0895833081F028F4813067
:1001300099F08230A9F008958730A9F08830C9F08D
:100140008430B1F4809180008F7D03C08091800065
:100150008F7780938000089584B58F7784BD08954C
:1001600084B58F7DFBCF8091B0008F778093B000F6
:1001700008958091B0008F7DF9CFCF93DF93282F22
:1001800030E0F901EE58FF4F8491F901E255FF4F3D
:10019000D491F901E656FF4FC491CC23A1F081110F
:1001A0000E949400EC2FF0E0EE0FFF1FE859FF4F84
:1001B000A591B491EC91ED2381E090E009F480E009
:1001C000DF91CF91089580E090E0FACF1F93CF9315
:1001D000DF93282F30E0F901EE58FF4F8491F901A9
:1001E000E255FF4FD491F901E656FF4FC491CC235D
:1001F000A9F0162F81110E949400EC2FF0E0EE0F71
:10020000FF1FEA57FF4FA591B4918FB7F894EC9177
:10021000111108C0D095DE23DC938FBFDF91CF9101
:100220001F910895DE2BF8CF3FB7F8948091050118
:1002300090910601A0910701B091080126B5A89BF5
:1002400005C02F3F19F00196A11DB11D3FBFBA2F68
:10025000A92F982F8827BC01CD01620F711D811D28
:10026000911D42E0660F771F881F991F4A95D1F7AD
:1002700008958F929F92AF92BF92CF92DF92EF92AA
:10028000FF924B015C010E9414016B017C010E94F2
:1002900014016C197D098E099F09683E7340810520
:1002A0009105A8F321E0821A9108A108B10888EE0F
:1002B000C80E83E0D81EE11CF11C81149104A10436
:1002C000B10429F7FF90EF90DF90CF90BF90AF90EF
:1002D0009F908F9008950F931F93CF93DF93C82F14
:1002E000062F142F60E0842F0E94E60061E08C2F1F
:1002F0000E94E60068EB7BE080E090E00E9439011C
:1003000060E08C2F0E94E600C4E0D0E061E0802F26
:100310000E94E60064E670E080E090E00E9439010F
:1003200060E0802F0E94E60064E670E080E090E0EC
:100330000E943901219751F761E0812FDF91CF9120
:100340001F910F910C94E6001F920F920FB60F921F
:1003500011242F933F938F939F93AF93BF938091DB
:10036000010190910201A0910301B091040130912B
:10037000000123E0230F2D3758F50196A11DB11D73
:10038000209300018093010190930201A093030147
:10039000B09304018091050190910601A09107019D
:1003A000B09108010196A11DB11D809305019093A4
:1003B0000601A0930701B0930801BF91AF919F91EF
:1003C0008F913F912F910F900FBE0F901F90189516
:1003D00026E8230F0296A11DB11DD2CF789484B5D3
:1003E000826084BD84B5816084BD85B5826085BD31
:1003F00085B5816085BD80916E00816080936E00BF
:1004000010928100809181008260809381008091B0
:100410008100816080938100809180008160809361
:1004200080008091B10084608093B1008091B00021
:1004300081608093B00080917A00846080937A001C
:1004400080917A00826080937A0080917A00816046
:1004500080937A0080917A00806880937A0010926D
:10046000C10084E00E94750083E00E94750082E074
:100470000E94750087E00E94750086E00E9475006A
:1004800085E00E9475008DE00E9475008CE00E945E
:1004900075008BE00E9475008AE00E94750089E07B
:1004A0000E94750088E00E947500C0E0D0E085E001
:1004B0000E94BD00892BB1F488E00E94BD00892B09
:1004C00089F48BE00E94BD00892B61F461E085E036
:1004D0000E94E60061E08BE00E94E60061E088E0B7
:1004E0000E94E60042E050E063E070E084E090E0CB
:1004F0000E946B014BE050E06CE070E08DE090E01A
:100500000E946B0148E050E069E070E08AE090E012
:100510000E946B0145E050E066E070E087E090E00B
:100520000E946B01209719F20E940000C0CFF8943E
:02053000FFCFFB
:107E0000112484B714BE81FFF0D085E080938100F7
:107E100082E08093C00088E18093C10086E0809377
:107E2000C20080E18093C4008EE0C9D0259A86E02C
:107E300020E33CEF91E0309385002093840096BBD3
:107E4000B09BFECF1D9AA8958150A9F7CC24DD24C4
:107E500088248394B5E0AB2EA1E19A2EF3E0BF2EE7
:107E6000A2D0813461F49FD0082FAFD0023811F036
:107E7000013811F484E001C083E08DD089C08234E0
:107E800011F484E103C0853419F485E0A6D080C0E4
:107E9000853579F488D0E82EFF2485D0082F10E0AE
:107EA000102F00270E291F29000F111F8ED06801E7
:107EB0006FC0863521F484E090D080E0DECF843638
:107EC00009F040C070D06FD0082F6DD080E0C81688
:107ED00080E7D80618F4F601B7BEE895C0E0D1E017
:107EE00062D089930C17E1F7F0E0CF16F0E7DF06D8
:107EF00018F0F601B7BEE89568D007B600FCFDCFD4
:107F0000A601A0E0B1E02C9130E011968C91119780
:107F100090E0982F8827822B932B1296FA010C0160
:107F200087BEE89511244E5F5F4FF1E0A038BF0790
:107F300051F7F601A7BEE89507B600FCFDCF97BE46
:107F4000E89526C08437B1F42ED02DD0F82E2BD052
:107F50003CD0F601EF2C8F010F5F1F4F84911BD097
:107F6000EA94F801C1F70894C11CD11CFA94CF0C13
:107F7000D11C0EC0853739F428D08EE10CD085E9AC
:107F80000AD08FE07ACF813511F488E018D01DD067
:107F900080E101D065CF982F8091C00085FFFCCF94
:107FA0009093C60008958091C00087FFFCCF809118
:107FB000C00084FD01C0A8958091C6000895E0E648
:107FC000F0E098E1908380830895EDDF803219F02E
:107FD00088E0F5DFFFCF84E1DECF1F93182FE3DFCA
:107FE0001150E9F7F2DF1F91089580E0E8DFEE27F6
:047FF000FF270994CA
:027FFE00040479
:00000001FF
